:100000000C9464000C948C000C948C000C948C0068
:100010000C948C000C948C000C948C000C948C0030
:100020000C948C000C948C000C948C000C948C0020
:100030000C948C000C948C000C948C000C948C0010
:100040000C9414090C948C000C94980A0C94DF0AFC
:100050000C948C000C948C000C948C000C948C00F0
:100060000C948C000C948C000000000024002700ED
:100070002A0000000000250028002B0000000000DE
:1000800023002600290004040404040404040202DA
:100090000202020203030303030301020408102007
:1000A0004080010204081020010204081020000012
:1000B0000007000201000003040600000000000029
:1000C0000000320216063C0C11241FBECFEFD8E010
:1000D000DEBFCDBF11E0A0E0B1E0E8EAFDE102C083
:1000E00005900D92AA33B107D9F712E0AAE3B1E067
:1000F00001C01D92A035B107E1F710E0C8ECD0E0D7
:1001000004C02297FE010E94970EC23CD107C9F796
:100110000E948C0C0C94D20E0C940000CF93DF93B1
:10012000BC018230910510F462E070E0A0914E02B3
:10013000B0914F02ED01E0E0F0E040E050E021C07E
:10014000888199818617970769F48A819B81309706
:1001500019F09383828304C090934F0280934E02E0
:10016000FE0134C06817790738F44115510519F0BC
:100170008417950708F4AC01FE018A819B819C01DC
:10018000E9012097E9F641155105A9F1CA01861B3D
:10019000970B049708F4BA01E0E0F0E02AC08D91D3
:1001A0009C91119784179507F9F46417750781F4EA
:1001B00012968D919C911397309719F093838283B7
:1001C00004C090934F0280934E02FD0132964CC0C2
:1001D000CA01861B970BFD01E80FF91F619371930C
:1001E00002978D939C9340C0FD01828193819C0175
:1001F000D9011097A1F680914C0290914D02892B64
:1002000041F480911D0190911E0190934D028093C5
:100210004C0240911F01509120014115510541F4BC
:100220004DB75EB780911B0190911C01481B590B83
:1002300020914C0230914D02CA01821B930B86170C
:10024000970780F0AB014E5F5F4F8417950750F022
:10025000420F531F50934D0240934C02F90161939A
:10026000719302C0E0E0F0E0CF01DF91CF910895FB
:10027000CF93DF93009709F450C0EC0122971B82C3
:100280001A82A0914E02B0914F02109709F140E0FE
:1002900050E0AC17BD0708F1BB83AA83FE01219192
:1002A0003191E20FF31FAE17BF0779F48D919C9146
:1002B0001197280F391F2E5F3F4F398328831296DD
:1002C0008D919C9113979B838A834115510571F4FD
:1002D000D0934F02C0934E0220C012968D919C91F4
:1002E0001397AD01009711F0DC01D3CFFA01D3834E
:1002F000C28321913191E20FF31FCE17DF0769F41A
:1003000088819981280F391F2E5F3F4FFA01318371
:1003100020838A819B8193838283DF91CF9108958B
:10032000A0E0B0E0E6E9F1E00C94A30EEC01A880B7
:10033000B980CA80DB80A114B104C104D10441F4A6
:1003400084E2A82E89EDB82E8BE5C82E87E0D82E42
:10035000C601B5012DE133EF41E050E00E947A0E75
:1003600027EA31E440E050E00E94120E7B018C014C
:10037000C601B5012DE133EF41E050E00E947A0E55
:10038000CA01B9012CEE34EF4FEF5FEF0E94120E5D
:100390006E0D7F1D801F911F97FF04C0615070403C
:1003A00080409048688379838A839B839B01AC015A
:1003B0005F77B901CA01CDB7DEB7EAE00C94BF0E92
:1003C0000E949001089581E291E00E9490010895B9
:1003D0006093210170932201809323019093240163
:1003E0000895DC0101C06D9341505040E0F708953D
:1003F0000F931F938C0160E070E080E090E027E0B5
:1004000030E040E050E00E94F40DF8017183608319
:100410008DE290E0938382836FEF7FEF8FEF9FEF0A
:1004200021E030E040E050E00E94F40DF8017583D7
:100430006483178216820E942004F8016287738702
:100440008487958760E070E080E090E024E130E010
:1004500040E050E00E94F40DF801718760871F9121
:100460000F910895CF93DF93CAE3D1E0CE010E94AC
:10047000F8012E9681E0C038D807C1F7DF91CF91FF
:100480000895CF92DF92EF92FF920F931F93CF9335
:10049000DF938FE00E940D0686E990E00E946905D7
:1004A000CAE3D1E000E010E07EEFC72E7FEFD72E49
:1004B0006EE0E62EF12C88859985009721F0019752
:1004C0009987888772C04C815D8128813981240F8A
:1004D000351F3983288337FF0CC088279927821B53
:1004E000930B9983888388279927841B950B9D8379
:1004F0008C83888199818830910564F09701281B4D
:10050000390B398328838C819D81909581959F4FEC
:100510009D838C834E815F812A813B81240F351F0F
:100520003B832A8337FF2CC088279927821B930B94
:100530009B838A83C601841B950B9F838E838DE2E8
:1005400092E060E071E00E94BC0D6E817F818DE2DF
:1005500092E04AE050E00E949D0D8E819F810697B7
:100560007CF49801220F331FC90143E0880F991FC3
:100570004A95E1F7821B930B865C9E4F0E94F8011F
:100580008E819F8101979F838E838A819B8166EFF5
:100590007FEF0E94450E6C5F7F4F2A853B854C851F
:1005A0005D85888199810E9455040F5F1F4F2E96AB
:1005B0000530110509F07FCFDF91CF911F910F9189
:1005C000FF90EF90DF90CF900895AF92BF92CF92BF
:1005D000DF92EF92FF920F931F93182F84E10E94F6
:1005E0000D060E9420045B016C010E94550510FF5E
:1005F00015C060E070E080E090E025E030E040E091
:1006000050E00E94F40D8B019C0180E090E0B80165
:1006100048E050E098018601750128C060E070E074
:1006200080E090E028E030E040E050E00E94F40DEF
:100630009B01AC01CB0160E070E0A90125E030E056
:10064000860175010E94A90460E070E080E090E0FE
:1006500028E030E040E050E00E94F40D9B01AC0146
:10066000CB0160E070E0A90125E030E00E94A90420
:100670001F910F91FF90EF90DF90CF90BF90AF90C0
:1006800008952F923F924F925F926F927F928F9236
:100690009F92AF92BF92CF92DF92EF92FF920F9311
:1006A0001F938C018EE10E940D0680EF90E00E9466
:1006B0006905C8016AE070E00E94450E892B09F0C7
:1006C0006AC060E070E080E090E022E030E040E06E
:1006D00050E00E94F40D611571058105910569F1E5
:1006E00060E070E080E090E025E030E040E050E045
:1006F0000E94F40D1B012C0160E070E080E090E0AE
:1007000028E030E040E050E00E94F40D3B014C0155
:1007100060E070E080E090E028E030E040E050E011
:100720000E94F40D5B016C010E9420047B018C018E
:10073000C301B101A50191012CC060E070E080E02F
:1007400090E028E030E040E050E00E94F40D1B0112
:100750002C0160E070E080E090E025E030E040E0D7
:1007600050E00E94F40D3B014C0160E070E080E03D
:1007700090E025E030E040E050E00E94F40D5B01A5
:100780006C010E9420047B018C01C101B301A10115
:1007900095010E94A9041F910F91FF90EF90DF90A7
:1007A000CF90BF90AF909F908F907F906F905F9011
:1007B0004F903F902F900895EF92FF920F931F93C9
:1007C0008F3F910509F080F4282F809590E0A0E0FC
:1007D000B0E08C01FF24EE2430E040E050E0542FE4
:1007E000432F322F222710C022E08030920788F456
:1007F000282F809590E0A0E0B0E0EE24F82E092F9D
:100800001A2F30E040E050E0E22AF32A042B152BA7
:1008100010C0282F2095E22EFF2400E010E090E089
:10082000A0E0B0E0DC0199278827E82AF92A0A2B02
:100830001B2BB701C8011F910F91FF90EF900895F6
:1008400060E070E080E090E02FEF3FEF4FEF50E08E
:100850000E94F40D08950F931F93DC01FB0160FFCC
:1008600006C087E090E0BC016A1B7B0BDB0113E054
:10087000EE0FFF1F1A95E1F767E270E06E1B7F0B2A
:100880006A1B7B0B6932710568F450E055954795FA
:1008900030E03595279510E01595079582E891E0B1
:1008A0000E9408081F910F910895AF92BF92CF92B6
:1008B000DF92EF92FF920F931F9379018A019801C3
:1008C00044275527AF2CB02EC12EDD24422F2A2DD0
:1008D0000E2D0E942B041F910F91FF90EF90DF903F
:1008E000CF90BF90AF9008956F927F928F929F921A
:1008F000AF92BF92CF92DF92EF92FF920F931F932E
:10090000CF93DF933C014A015901670178018B01C4
:100910000CC0CE01B801A70196010E945504219692
:10092000C815D905B4F30F5F1F4F0A151B0514F442
:10093000E301F6CFDF91CF911F910F91FF90EF90E0
:10094000DF90CF90BF90AF909F908F907F906F90EF
:1009500008954F925F926F927F928F929F92AF9283
:10096000BF92CF92DF92EF92FF920F931F93DF938C
:10097000CF9300D000D0CDB7DEB74C013B015A0178
:100980006901E982FA820B831C8384179507D1F4ED
:100990005901621773076CF45B010BC0C401B50108
:1009A00029813A814B815C810E9455040894A11CE5
:1009B000B11CC601C614D7040CF4C301A816B906AD
:1009C0006CF35EC062177307D1F46A018417950750
:1009D0006CF46C010BC0C601B30129813A814B81D3
:1009E0005C810E9455040894C11CD11CC501A81447
:1009F000B9040CF4C401C816D9066CF341C029012E
:100A0000461A570A7A01E81AF90AE414F50424F0A0
:100A10006C0100E010E02FC05B0100E010E013C0AB
:100A2000C8018E199F09B2010E94450ECB01880DA5
:100A3000991DB50129813A814B815C810E94550441
:100A40000894A11CB11C0E0D1F1DAC14BD0444F371
:100A500017C0C80184199509B7010E94450E660D9B
:100A6000771DC60129813A814B815C810E94550422
:100A70000894C11CD11C040D151DCA14DB044CF3D1
:100A80000F900F900F900F90CF91DF911F910F91CA
:100A9000FF90EF90DF90CF90BF90AF909F908F909E
:100AA0007F906F905F904F900895CF93DF93C0E059
:100AB000D0E082E891E0BE0120E030E040E050E08C
:100AC0000E9423082196C832D10599F7DF91CF9172
:100AD0000895CF92DF92EF92FF920F931F93CF93DF
:100AE000DF936C01C0E0D0E082E891E0BE010E949B
:100AF0004E087B018C01BB27A12F902F8F2D90E0FA
:100B00009C012C9DC0012D9D900D3C9D900D1124AC
:100B100060E071E00E94450E462FC801AA27BB275E
:100B200090E09C012C9DC0012D9D900D3C9D900D51
:100B3000112460E071E00E94450E262FFF24EC9CFA
:100B4000C001ED9C900DFC9C900D112460E071E0C3
:100B50000E94450E062F82E891E0BE010E9408081F
:100B60002196C832D10509F0BFCFDF91CF911F91F7
:100B70000F91FF90EF90DF90CF900895EF92FF924A
:100B80000F931F938EE10E940D068091800190913A
:100B900081010E94DC037B018C0180E090E060E039
:100BA00070E048E050E025E030E00E94740480915D
:100BB000800190918101019660E073E00E94310E06
:100BC00090938101809380011F910F91FF90EF908E
:100BD00008950F931F938C0184E10E940D0686E90E
:100BE00090E00E946905C80168E070E00E94450E2F
:100BF0009C01C80168E070E00E94450ECB0165E0F1
:100C000070E00E94450EBC01C9014FEF2FEF0FEFBE
:100C10000E942B041F910F910895682F88EE93E096
:100C200070E00E94450E60932501089582E891E0EE
:100C300068E270E00E94F3080895EF92FF920F932C
:100C40001F93CF93DF930E9468097B018C0183E19E
:100C50000E94440AEC018091260190912701C81757
:100C6000D90799F0D0932701C09326010E94680903
:100C7000609398017093990180939A0190939B01DE
:100C8000109229011092280130C080912801909182
:100C90002901892B51F50E94680920919801309112
:100CA000990140919A0150919B01621B730B840B37
:100CB000950B6F31710581059105B8F08DE292E0D9
:100CC00069E071E00E94BF0D81E090E090932901FE
:100CD00080932801CD2B49F4809196019091970142
:100CE0000196909397018093960180919001909145
:100CF0009101A0919201B0919301A8019701281B45
:100D0000390B4A0B5B0B8091250190E0A0E0B0E02D
:100D100082179307A407B50708F06CC0809196016D
:100D2000909197018230910539F1833091053CF41F
:100D3000009761F08130910509F03FC012C0833007
:100D4000910529F184309105C1F52CC010929701CD
:100D50001092960180919401909195010E94410218
:100D600034C0909397018093960180919401909163
:100D700095010E94E90529C09093970180939601FF
:100D800080919401909195010E9441031EC090931F
:100D900097018093960180919401909195010E9412
:100DA000BE0513C0909397018093960180919401A2
:100DB000909195010E94E50208C001968B30910543
:100DC0000CF4B0CF80E090E0ADCF82E891E00E94DB
:100DD0006C078091940190919501019690939501F3
:100DE00080939401E0929001F0929101009392011E
:100DF00010939301DF91CF911F910F91FF90EF908E
:100E000008950F931F930DE212E0C80140E052ECE9
:100E100061E070E00E941A0BC80164E171E00E9479
:100E2000BF0D83E160E00E94B10983E161E00E94AF
:100E3000F00981E161E00E94B10981E160E00E9476
:100E4000F00902E811E0C8010E9402090E9455055C
:100E5000C8010E946C071F910F910895882319F40F
:100E60008CB5806202C08CB58F7D8CBD08959CB519
:100E7000937F982B9CBD08952CB5382F33702C7F11
:100E8000322B3CBD2DB590E095958795959587952E
:100E900081702E7F822B8DBD08958DE061E00E94D0
:100EA000B1098BE061E00E94B1098AE061E00E9433
:100EB000B1098DE060E00E94F0098BE060E00E94E3
:100EC000F0098AE061E00E94F0098CB580618CBD78
:100ED0008CB580648CBD08951F93CF93DF93DC01A4
:100EE00012968D919C911397EC01CC0FDD1FC80FCA
:100EF000D91F1C968C911C97882319F440E050E070
:100F000059C020E030E00CC00DB407FEFDCFED91DC
:100F1000FC911197E20FF31F80818EBD2F5F3F4F31
:100F20002C173D0788F380E090E00DB407FEFDCF5D
:100F30001EBC019683309105C1F766C010E860E0E1
:100F400070E0812F90E0ED91FC911197E40FF51F77
:100F5000208130E0822393231A96ED91FC911B9718
:100F600017962C911797892B21F08081822B8083F3
:100F700004C080812095282320831896ED91FC9150
:100F80001997808116969C911697892B80831896C5
:100F9000ED91FC911997908116968C9116978095FA
:100FA0008923808316956F5F7F4F6830710549F6FE
:100FB0004F5F5F4F4C175D0708F21A96ED91FC9159
:100FC0001B97908117968C91179780958923808322
:100FD00020E030E01896ED91FC91199780811696EB
:100FE0009C911697892B80831896ED91FC91199707
:100FF000908116968C9116978095892380832F5F18
:101000003F4F2831310531F7DF91CF911F9108957E
:101010000F93FC01828193816817790790F4CB01CB
:10102000880F991F860F971F0190F081E02DE80F20
:10103000F91F2068DF012D934068418300681196F5
:101040000C930F910895EF92FF920F931F93FC0161
:1010500079018A018281938168177907D0F4CB01E5
:10106000880F991F860F971F20813181280F391F04
:10107000C801AA27BB278068F9018193BB27A12F4C
:10108000902F8F2D8068D90111968C938E2D8068BA
:1010900081831F910F91FF90EF900895FC01828151
:1010A00093816817790728F020E030E040E050E0B5
:1010B0002AC0CB01880F991F860F971F0190F081DE
:1010C000E02DE80FF91F8281282F30E040E050E04A
:1010D000808190E0A0E0B0E0DC0199278827282BF0
:1010E000392B4A2B5B2B818190E0A0E0B0E0BA2F36
:1010F000A92F982F8827282B392B4A2B5B2B2F774A
:101100003F774F775070B901CA010895EF92FF926F
:101110000F931F93CF93DF937C01EB01FC01808140
:101120009181009711F00E943801F701D383C283A7
:101130008E01000F111F0C0F1D1FC8010E948E0091
:10114000F70191838083009731F060E870E0A80197
:101150000E94F10103C0F70113821282DF91CF9147
:101160001F910F91FF90EF900895CF93DF93EC01C3
:101170008D8161E00E94B1098C8161E00E94B1091A
:10118000EA85FB8590818F8180958923808328E083
:10119000E885F98580819E81892B8083E885F985A2
:1011A00090818E81809589238083215089F7DF91FA
:1011B000CF9108950E944D0781E00E942E0780E0A4
:1011C0000E94370785E00E943C071EBC0895FC0181
:1011D00081E08487148215828585813019F4CF01DE
:1011E0000E94DA0808950F931F938C01FC0111826D
:1011F000108215860E948608C8010E94E7081F9188
:101200000F910895CF93DF93EC018C85813021F409
:10121000CE010E94DA0803C0CE010E94B50881E029
:101220008D87DF91CF9108951F920F920FB60F9285
:1012300011242F933F934F935F936F937F938F93DB
:101240009F93AF93BF932091A0013091A101409152
:10125000A2015091A3017091A401DA01C901029683
:10126000A11DB11D672F6A5F6D3730F06D57DA0130
:10127000C9010396A11DB11D6093A4018093A00133
:101280009093A101A093A201B093A30180919C012E
:1012900090919D01A0919E01B0919F010196A11D89
:1012A000B11D80939C0190939D01A0939E01B093EA
:1012B0009F01BF91AF919F918F917F916F915F91AE
:1012C0004F913F912F910F900FBE0F901F90189547
:1012D0008FB7F8942091A0013091A1014091A20113
:1012E0005091A3018FBFB901CA010895789484B5C4
:1012F000826084BD84B5816084BD85B5826085BD12
:1013000085B5816085BDEEE6F0E0808181608083F7
:10131000E1E8F0E0108280818260808380818160DA
:101320008083E0E8F0E0808181608083E1EBF0E0A1
:10133000808184608083E0EBF0E080818160808345
:10134000EAE7F0E08081846080838081826080832E
:101350008081816080838081806880831092C10059
:101360000895CF93DF93482F50E0CA0186569F4FD0
:10137000FC0134914A575F4FFA018491882369F147
:1013800090E0880F991FFC01E859FF4FA591B49197
:10139000FC01EE58FF4FC591D491662351F42FB74D
:1013A000F8948C91932F909589238C93888189232D
:1013B0000BC0623061F42FB7F8948C91932F909505
:1013C00089238C938881832B88832FBF06C09FB786
:1013D000F8948C91832B8C939FBFDF91CF910895CC
:1013E000482F50E0CA0182559F4FFC012491CA0149
:1013F00086569F4FFC0194914A575F4FFA013491F2
:10140000332309F440C0222351F1233071F02430FA
:1014100028F42130A1F0223011F514C02630B1F0AB
:101420002730C1F02430D9F404C0809180008F7738
:1014300003C0809180008F7D8093800010C084B5B0
:101440008F7702C084B58F7D84BD09C08091B000C4
:101450008F7703C08091B0008F7D8093B000E32F21
:10146000F0E0EE0FFF1FEE58FF4FA591B4912FB79C
:10147000F894662321F48C919095892302C08C9175
:10148000892B8C932FBF0895682F70E0CB01825574
:101490009F4FFC012491CB0186569F4FFC01449144
:1014A0006A577F4FFB019491992319F420E030E0B3
:1014B0003CC0222351F1233071F0243028F4213034
:1014C000A1F0223011F514C02630B1F02730C1F060
:1014D0002430D9F404C0809180008F7703C08091BC
:1014E00080008F7D8093800010C084B58F7702C00C
:1014F00084B58F7D84BD09C08091B0008F7703C013
:101500008091B0008F7D8093B000892F90E0880F8C
:10151000991F84589F4FFC01A591B4918C9120E0B4
:1015200030E0842311F021E030E0C90108950895EE
:101530001F920F920FB60F9211242F933F934F9348
:101540008F939F93EF93FF934091C6002091E50105
:101550003091E6012F5F3F4F2F7330708091E7018C
:101560009091E8012817390759F0E091E501F091D1
:10157000E601EB55FE4F40833093E6012093E501F1
:10158000FF91EF919F918F914F913F912F910F90EC
:101590000FBE0F901F901895E0913902F0913A021A
:1015A000E05CFF4F8191919120813181821B930BEF
:1015B0008F739070892B11F00E94970A08951F92E3
:1015C0000F920FB60F9211242F933F938F939F93F7
:1015D000EF93FF932091290230912A0280912B02F0
:1015E00090912C022817390731F48091C1008F7D2A
:1015F0008093C10014C0E0912B02F0912C02E751BE
:10160000FE4F208180912B0290912C0201968F73C6
:10161000907090932C0280932B022093C600FF9130
:10162000EF919F918F913F912F910F900FBE0F904F
:101630001F901895AF92BF92DF92EF92FF920F9397
:101640001F93CF93DF93EC017A018B01DD24D394B8
:1016500091E0A92EB12CEC89FD89DD2069F0C5014E
:101660000E8C02C0880F991F0A94E2F7808360E80D
:1016700074E88EE190E005C0108260E472E48FE0CF
:1016800090E0A80197010E94580E21503040404040
:101690005040569547953795279580E1203038077B
:1016A00020F0DD2011F0DD24D6CFE889F9893083E0
:1016B000EA89FB892083EE89FF89408121E030E0BF
:1016C000C9010A8C02C0880F991F0A94E2F7482BBF
:1016D0004083EE89FF894081C9010B8C02C0880FCD
:1016E000991F0A94E2F7482B4083EE89FF894081D5
:1016F000C9010C8C02C0880F991F0A94E2F7482B8D
:101700004083EE89FF8980810D8C02C0220F331F38
:101710000A94E2F7209528232083DF91CF911F912F
:101720000F91FF90EF90DF90BF90AF900895DC0194
:101730001C96ED91FC911D97E05CFF4F219131913A
:1017400080819181281B390B2F733070C901089556
:10175000DC011C96ED91FC911D97E05CFF4F208110
:101760003181E054F040DF01AE5BBF4F8D919C9121
:1017700011972817390719F42FEF3FEF07C08D9104
:101780009C91E80FF91F8081282F30E0C90108954E
:10179000DC011C96ED91FC911D97E05CFF4F2081D0
:1017A0003181E054F040DF01AE5BBF4F8D919C91E1
:1017B00011972817390719F42FEF3FEF10C08D91BB
:1017C0009C911197E80FF91F20818D919C911197A1
:1017D00001968F73907011969C938E9330E0C9019F
:1017E0000895FC0186859785DC01A05CBF4FFC0154
:1017F000EE5BFF4F2D913C911197808191812817CD
:101800003907C1F70895CF93DF93EC01EE85FF858B
:10181000E05CFF4F20813181E054F0402F5F3F4F6B
:101820002F733070DF01AE5BBF4F8D919C9111978C
:1018300028173907D1F3E05CFF4F80819181E05494
:10184000F040E80FF91F6083EE85FF85E05CFF4FF5
:1018500031832083EE89FF89208181E090E00D8C27
:1018600002C0880F991F0A94E2F7282B208381E099
:1018700090E0DF91CF9108951092300210922F02E4
:1018800088EE93E0A0E0B0E08093310290933202C2
:10189000A0933302B09334028EE291E090932E0233
:1018A00080932D0285EA91E090933A028093390269
:1018B00089EE91E090933C0280933B0285EC90E0AE
:1018C00090933E0280933D0284EC90E0909340021E
:1018D00080933F0280EC90E090934202809341021B
:1018E00081EC90E0909344028093430286EC90E078
:1018F000909346028093450284E08093470283E000
:101900008093480287E08093490285E080934A02F1
:1019100081E080934B020895CF93DF930E94760974
:101920000E940107CCECDAE00E941D062097E1F34B
:101930000E94CC0AF9CFCF92DF92EF92FF920F93E1
:101940001F93CF93DF937C016B018A01C0E0D0E04D
:101950000FC0D6016D916D01D701ED91FC91019001
:10196000F081E02DC7010995C80FD91F0150104023
:101970000115110571F7CE01DF91CF911F910F91E4
:10198000FF90EF90DF90CF900895EF92FF920F932A
:101990001F938C01DC01ED91FC910190F081E02D11
:1019A0006DE009957C01D801ED91FC910190F081E9
:1019B000E02DC8016AE009959C012E0D3F1DC9016B
:1019C0001F910F91FF90EF900895CF93DF93DB016C
:1019D0000D900020E9F71197A61BB70BEC01E881E9
:1019E000F9810280F381E02DAD010995DF91CF915E
:1019F00008954F925F927F928F929F92AF92BF9283
:101A0000CF92DF92EF92FF920F931F93DF93CF93CA
:101A1000CDB7DEB7A1970FB6F894DEBF0FBECDBF2E
:101A20002C01742ECB01223008F42AE019A231E2F5
:101A3000C32ED12CCC0EDD1E822E9924AA24BB24C9
:101A4000672D752FA50194010E94580E79018A0116
:101A5000C801B701A50194010E94120E472D461B33
:101A60000894C108D1084A3014F4405D01C0495CB3
:101A7000F6014083E114F1040105110521F07E2CEB
:101A80005F2DC801DDCFC201B6010E94E50CA19611
:101A90000FB6F894DEBF0FBECDBFCF91DF911F917F
:101AA0000F91FF90EF90DF90CF90BF90AF909F90FD
:101AB0008F907F905F904F900895CF92DF92EF923A
:101AC000FF920F931F93CF93DF93EC016A017B0189
:101AD0002115310541F4E881F9810190F081E02D73
:101AE000642F09951FC02A303105D1F477FF17C044
:101AF000E881F9810190F081E02D6DE209958C017A
:101B000044275527BA014C195D096E097F09CE019A
:101B10002AE00E94F90C9801280F391F04C02AE01E
:101B20000E94F90C9C01C901DF91CF911F910F9187
:101B3000FF90EF90DF90CF900895CF92DF92EF92D9
:101B4000FF920F931F936C017B019A010027F7FC12
:101B50000095102FB801A7010E945D0D8C01C601F0
:101B60000E94C50C080F191FC8011F910F91FF900B
:101B7000EF90DF90CF9008950E94E50C0895EF92CA
:101B8000FF920F931F937C010E94E50C8C01C7010B
:101B90000E94C50C080F191FC8011F910F91FF90DB
:101BA000EF900895EF92FF920F931F937B018C01AA
:101BB000611571058105910529F420E030E040E0D0
:101BC00050E00BC00E94E301A80197010E947A0E29
:101BD000AC01CB01DA019C01AD01B901CA011F9131
:101BE0000F91FF90EF900895EF92FF920F931F9344
:101BF0007B018C01621773078407950764F4261B29
:101C0000370B480B590BCA01B9010E94D20DE60EE1
:101C1000F71E081F191FB701C8011F910F91FF90F0
:101C2000EF900895629FD001739FF001829FE00DB5
:101C3000F11D649FE00DF11D929FF00D839FF00D4B
:101C4000749FF00D659FF00D9927729FB00DE11DF7
:101C5000F91F639FB00DE11DF91FBD01CF011124D4
:101C60000895AA1BBB1B51E107C0AA1FBB1FA617E3
:101C7000B70710F0A61BB70B881F991F5A95A9F735
:101C800080959095BC01CD01089597FB092E0726FC
:101C90000AD077FD04D0E5DF06D000201AF4709555
:101CA00061957F4F0895F6F7909581959F4F089520
:101CB000A1E21A2EAA1BBB1BFD010DC0AA1FBB1F50
:101CC000EE1FFF1FA217B307E407F50720F0A21BC2
:101CD000B30BE40BF50B661F771F881F991F1A942F
:101CE00069F760957095809590959B01AC01BD0159
:101CF000CF01089597FB092E05260ED057FD04D07D
:101D0000D7DF0AD0001C38F45095409530952195C6
:101D10003F4F4F4F5F4F0895F6F790958095709520
:101D200061957F4F8F4F9F4F0895EE0FFF1F0590D6
:101D3000F491E02D09942F923F924F925F926F920F
:101D40007F928F929F92AF92BF92CF92DF92EF924B
:101D5000FF920F931F93CF93DF93CDB7DEB7CA1BCC
:101D6000DB0B0FB6F894DEBF0FBECDBF09942A88F7
:101D7000398848885F846E847D848C849B84AA849F
:101D8000B984C884DF80EE80FD800C811B81AA812C
:101D9000B981CE0FD11D0FB6F894DEBF0FBECDBFF7
:081DA000ED010895F894FFCF56
:101DA800626F756E63653A20007472616E73697450
:101DB800696F6E0048656C6C6F210020005002004E
:101DC80000010000001E0100010000000000030CDB
:0A1DD8009B0C970BC80BA80BF10B36
:00000001FF
